{
  "_format": "hh-sol-artifact-1",
  "contractName": "AuctionFactory",
  "sourceName": "contracts/AuctionFactory.sol",
  "abi": [
    {
      "anonymous": false,
      "inputs": [
        {
          "indexed": true,
          "internalType": "address",
          "name": "auction",
          "type": "address"
        },
        {
          "indexed": false,
          "internalType": "string",
          "name": "item",
          "type": "string"
        },
        {
          "indexed": false,
          "internalType": "uint256",
          "name": "endTime",
          "type": "uint256"
        },
        {
          "indexed": true,
          "internalType": "address",
          "name": "creator",
          "type": "address"
        }
      ],
      "name": "AuctionCreated",
      "type": "event"
    },
    {
      "inputs": [
        {
          "internalType": "uint256",
          "name": "",
          "type": "uint256"
        }
      ],
      "name": "auctions",
      "outputs": [
        {
          "internalType": "address",
          "name": "",
          "type": "address"
        }
      ],
      "stateMutability": "view",
      "type": "function"
    },
    {
      "inputs": [
        {
          "internalType": "string",
          "name": "item",
          "type": "string"
        },
        {
          "internalType": "uint256",
          "name": "durationSeconds",
          "type": "uint256"
        }
      ],
      "name": "createAuction",
      "outputs": [
        {
          "internalType": "address",
          "name": "",
          "type": "address"
        }
      ],
      "stateMutability": "nonpayable",
      "type": "function"
    },
    {
      "inputs": [],
      "name": "getAllAuctions",
      "outputs": [
        {
          "internalType": "address[]",
          "name": "",
          "type": "address[]"
        }
      ],
      "stateMutability": "view",
      "type": "function"
    },
    {
      "inputs": [
        {
          "internalType": "address",
          "name": "",
          "type": "address"
        }
      ],
      "name": "infoByAuction",
      "outputs": [
        {
          "internalType": "string",
          "name": "item",
          "type": "string"
        },
        {
          "internalType": "uint256",
          "name": "endTime",
          "type": "uint256"
        },
        {
          "internalType": "address",
          "name": "creator",
          "type": "address"
        }
      ],
      "stateMutability": "view",
      "type": "function"
    }
  ],
  "bytecode": "0x608060405234801561001057600080fd5b506112c2806100206000396000f3fe60806040523480156200001157600080fd5b5060043610620000525760003560e01c8063571a26a0146200005757806362295dbe146200008b578063cbd2bdfd14620000b3578063ff89523914620000cc575b600080fd5b6200006e6200006836600462000448565b620000e3565b6040516001600160a01b0390911681526020015b60405180910390f35b620000a26200009c36600462000462565b6200010e565b6040516200008293929190620004dc565b620000bd620001ca565b60405162000082919062000511565b6200006e620000dd36600462000576565b6200022e565b60008181548110620000f457600080fd5b6000918252602090912001546001600160a01b0316905081565b6001602052600090815260409020805481906200012b9062000635565b80601f0160208091040260200160405190810160405280929190818152602001828054620001599062000635565b8015620001aa5780601f106200017e57610100808354040283529160200191620001aa565b820191906000526020600020905b8154815290600101906020018083116200018c57829003601f168201915b5050505060018301546002909301549192916001600160a01b0316905083565b606060008054806020026020016040519081016040528092919081815260200182805480156200022457602002820191906000526020600020905b81546001600160a01b0316815260019091019060200180831162000205575b5050505050905090565b600080838360405162000241906200043a565b6200024e92919062000671565b604051809103906000f0801580156200026b573d6000803e3d6000fd5b50600080546001810182559080527f290decd9548b62a8d60345a988386fc84ba6bc95484008f6362f93160ef3e5630180546001600160a01b0319166001600160a01b0383169081179091556040805160608101825287815281516318cbe5db60e11b81529151939450849390926020808501939192633197cbb69260048082019392918290030181865afa15801562000309573d6000803e3d6000fd5b505050506040513d601f19601f820116820180604052508101906200032f919062000695565b8152336020918201526001600160a01b03831660009081526001909152604090208151819062000360908262000704565b506020828101516001830155604092830151600290920180546001600160a01b0319166001600160a01b0393841617905582516318cbe5db60e11b815292513393858416937fbf290ac16c38959544e00865d39281ad1492eff55c51a9ff2820bbce2e15226c938b9391891692633197cbb692600480830193928290030181865afa158015620003f4573d6000803e3d6000fd5b505050506040513d601f19601f820116820180604052508101906200041a919062000695565b6040516200042a92919062000671565b60405180910390a3949350505050565b610abb80620007d283390190565b6000602082840312156200045b57600080fd5b5035919050565b6000602082840312156200047557600080fd5b81356001600160a01b03811681146200048d57600080fd5b9392505050565b6000815180845260005b81811015620004bc576020818501810151868301820152016200049e565b506000602082860101526020601f19601f83011685010191505092915050565b606081526000620004f1606083018662000494565b6020830194909452506001600160a01b0391909116604090910152919050565b6020808252825182820181905260009190848201906040850190845b81811015620005545783516001600160a01b0316835292840192918401916001016200052d565b50909695505050505050565b634e487b7160e01b600052604160045260246000fd5b600080604083850312156200058a57600080fd5b823567ffffffffffffffff80821115620005a357600080fd5b818501915085601f830112620005b857600080fd5b813581811115620005cd57620005cd62000560565b604051601f8201601f19908116603f01168101908382118183101715620005f857620005f862000560565b816040528281528860208487010111156200061257600080fd5b826020860160208301376000602093820184015298969091013596505050505050565b600181811c908216806200064a57607f821691505b6020821081036200066b57634e487b7160e01b600052602260045260246000fd5b50919050565b60408152600062000686604083018562000494565b90508260208301529392505050565b600060208284031215620006a857600080fd5b5051919050565b601f821115620006ff576000816000526020600020601f850160051c81016020861015620006da5750805b601f850160051c820191505b81811015620006fb57828155600101620006e6565b5050505b505050565b815167ffffffffffffffff81111562000721576200072162000560565b620007398162000732845462000635565b84620006af565b602080601f831160018114620007715760008415620007585750858301515b600019600386901b1c1916600185901b178555620006fb565b600085815260208120601f198616915b82811015620007a25788860151825594840194600190910190840162000781565b5085821015620007c15787850151600019600388901b60f8161c191681555b5050505050600190811b0190555056fe60806040523480156200001157600080fd5b5060405162000abb38038062000abb833981016040819052620000349162000071565b6000620000428382620001dd565b506200004f8142620002a9565b60015550620002d19050565b634e487b7160e01b600052604160045260246000fd5b600080604083850312156200008557600080fd5b82516001600160401b03808211156200009d57600080fd5b818501915085601f830112620000b257600080fd5b815181811115620000c757620000c76200005b565b604051601f8201601f19908116603f01168101908382118183101715620000f257620000f26200005b565b816040528281526020935088848487010111156200010f57600080fd5b600091505b8282101562000133578482018401518183018501529083019062000114565b6000928101840192909252509401519395939450505050565b600181811c908216806200016157607f821691505b6020821081036200018257634e487b7160e01b600052602260045260246000fd5b50919050565b601f821115620001d8576000816000526020600020601f850160051c81016020861015620001b35750805b601f850160051c820191505b81811015620001d457828155600101620001bf565b5050505b505050565b81516001600160401b03811115620001f957620001f96200005b565b62000211816200020a84546200014c565b8462000188565b602080601f831160018114620002495760008415620002305750858301515b600019600386901b1c1916600185901b178555620001d4565b600085815260208120601f198616915b828110156200027a5788860151825594840194600190910190840162000259565b5085821015620002995787850151600019600388901b60f8161c191681555b5050505050600190811b01905550565b80820180821115620002cb57634e487b7160e01b600052601160045260246000fd5b92915050565b6107da80620002e16000396000f3fe608060405234801561001057600080fd5b50600436106100885760003560e01c80634bb278f31161005b5780634bb278f3146100f1578063af1b2469146100fb578063dfbf53ae1461010e578063f2a4a82e1461013957600080fd5b806312fa6feb1461008d5780632356032d146100b65780633197cbb6146100c857806337aeebe5146100d1575b600080fd5b6004546100a190600160a01b900460ff1681565b60405190151581526020015b60405180910390f35b6003545b6040519081526020016100ad565b6100ba60015481565b6100e46100df3660046104d1565b610141565b6040516100ad9190610547565b6100f96101ed565b005b6100f961010936600461055a565b610338565b600454610121906001600160a01b031681565b6040516001600160a01b0390911681526020016100ad565b6100e4610443565b6001600160a01b0381166000908152600260205260409020805460609190610168906105cc565b80601f0160208091040260200160405190810160405280929190818152602001828054610194906105cc565b80156101e15780601f106101b6576101008083540402835291602001916101e1565b820191906000526020600020905b8154815290600101906020018083116101c457829003601f168201915b50505050509050919050565b60015442101561022e5760405162461bcd60e51b8152602060048201526007602482015266139bdd081e595d60ca1b60448201526064015b60405180910390fd5b600454600160a01b900460ff16156102785760405162461bcd60e51b815260206004820152600d60248201526c105b1c9958591e48195b991959609a1b6044820152606401610225565b6004805460ff60a01b1916600160a01b179055600354156102e357600380546102a390600190610606565b815481106102b3576102b361062d565b600091825260209091200154600480546001600160a01b0319166001600160a01b039092169190911790556102f4565b600480546001600160a01b03191690555b6004546040514281526001600160a01b03909116907fdaec4582d5d9595688c8c98545fdd1c696d41c6aeaeb636737e84ed2f5c00eda9060200160405180910390a2565b60015442106103795760405162461bcd60e51b815260206004820152600d60248201526c105d58dd1a5bdb88195b991959609a1b6044820152606401610225565b3360009081526002602052604090208054610393906105cc565b90506000036103df57600380546001810182556000919091527fc2575a0e9e593c00f959f8c92f12db2869c3395a3b0502d05e2516446f71f85b0180546001600160a01b031916331790555b3360009081526002602052604090206103f98284836106aa565b50336001600160a01b03167fc8978bbc656dfcedcde5cae86ce0c1f7d69d6974d2aadb6e4dee1fab2831cceb8383426040516104379392919061076b565b60405180910390a25050565b60008054610450906105cc565b80601f016020809104026020016040519081016040528092919081815260200182805461047c906105cc565b80156104c95780601f1061049e576101008083540402835291602001916104c9565b820191906000526020600020905b8154815290600101906020018083116104ac57829003601f168201915b505050505081565b6000602082840312156104e357600080fd5b81356001600160a01b03811681146104fa57600080fd5b9392505050565b6000815180845260005b818110156105275760208185018101518683018201520161050b565b506000602082860101526020601f19601f83011685010191505092915050565b6020815260006104fa6020830184610501565b6000806020838503121561056d57600080fd5b823567ffffffffffffffff8082111561058557600080fd5b818501915085601f83011261059957600080fd5b8135818111156105a857600080fd5b8660208285010111156105ba57600080fd5b60209290920196919550909350505050565b600181811c908216806105e057607f821691505b60208210810361060057634e487b7160e01b600052602260045260246000fd5b50919050565b8181038181111561062757634e487b7160e01b600052601160045260246000fd5b92915050565b634e487b7160e01b600052603260045260246000fd5b634e487b7160e01b600052604160045260246000fd5b601f8211156106a5576000816000526020600020601f850160051c810160208610156106825750805b601f850160051c820191505b818110156106a15782815560010161068e565b5050505b505050565b67ffffffffffffffff8311156106c2576106c2610643565b6106d6836106d083546105cc565b83610659565b6000601f84116001811461070a57600085156106f25750838201355b600019600387901b1c1916600186901b178355610764565b600083815260209020601f19861690835b8281101561073b578685013582556020948501946001909201910161071b565b50868210156107585760001960f88860031b161c19848701351681555b505060018560011b0183555b5050505050565b604081528260408201528284606083013760006060848301015260006060601f19601f860116830101905082602083015294935050505056fea26469706673582212200bc3c1bdf69273c37065a49d0433e12fe57016e7ebc7ac338b85cf7d1566fa1264736f6c63430008180033a26469706673582212201998aacc96da03f2e11a62da58f562e39c34d8f2fefbcf0b9c743cc860b3da9064736f6c63430008180033",
  "linkReferences": {},
  "deployedLinkReferences": {}
}