{
  "_format": "hh-sol-artifact-1",
  "contractName": "FHEAuction",
  "sourceName": "contracts/FHEAuction.sol",
  "abi": [
    {
      "inputs": [
        {
          "internalType": "string",
          "name": "_item",
          "type": "string"
        },
        {
          "internalType": "uint256",
          "name": "_biddingDurationSeconds",
          "type": "uint256"
        }
      ],
      "stateMutability": "nonpayable",
      "type": "constructor"
    },
    {
      "anonymous": false,
      "inputs": [
        {
          "indexed": false,
          "internalType": "uint256",
          "name": "timestamp",
          "type": "uint256"
        }
      ],
      "name": "AuctionEnded",
      "type": "event"
    },
    {
      "anonymous": false,
      "inputs": [
        {
          "indexed": true,
          "internalType": "address",
          "name": "bidder",
          "type": "address"
        },
        {
          "indexed": false,
          "internalType": "bytes",
          "name": "encryptedAmount",
          "type": "bytes"
        },
        {
          "indexed": false,
          "internalType": "uint256",
          "name": "timestamp",
          "type": "uint256"
        }
      ],
      "name": "BidSubmitted",
      "type": "event"
    },
    {
      "inputs": [],
      "name": "end",
      "outputs": [],
      "stateMutability": "nonpayable",
      "type": "function"
    },
    {
      "inputs": [],
      "name": "endTime",
      "outputs": [
        {
          "internalType": "uint256",
          "name": "",
          "type": "uint256"
        }
      ],
      "stateMutability": "view",
      "type": "function"
    },
    {
      "inputs": [
        {
          "internalType": "address",
          "name": "user",
          "type": "address"
        }
      ],
      "name": "getBidCipher",
      "outputs": [
        {
          "internalType": "bytes",
          "name": "",
          "type": "bytes"
        }
      ],
      "stateMutability": "view",
      "type": "function"
    },
    {
      "inputs": [],
      "name": "item",
      "outputs": [
        {
          "internalType": "string",
          "name": "",
          "type": "string"
        }
      ],
      "stateMutability": "view",
      "type": "function"
    },
    {
      "inputs": [
        {
          "internalType": "bytes",
          "name": "encryptedAmount",
          "type": "bytes"
        }
      ],
      "name": "placeBid",
      "outputs": [],
      "stateMutability": "nonpayable",
      "type": "function"
    }
  ],
  "bytecode": "0x608060405234801561001057600080fd5b5060405161089438038061089483398101604081905261002f91610067565b600061003b83826101c1565b506100468142610280565b600155506102a79050565b634e487b7160e01b600052604160045260246000fd5b6000806040838503121561007a57600080fd5b82516001600160401b038082111561009157600080fd5b818501915085601f8301126100a557600080fd5b8151818111156100b7576100b7610051565b604051601f8201601f19908116603f011681019083821181831017156100df576100df610051565b816040528281526020935088848487010111156100fb57600080fd5b600091505b8282101561011d5784820184015181830185015290830190610100565b6000928101840192909252509401519395939450505050565b600181811c9082168061014a57607f821691505b60208210810361016a57634e487b7160e01b600052602260045260246000fd5b50919050565b601f8211156101bc576000816000526020600020601f850160051c810160208610156101995750805b601f850160051c820191505b818110156101b8578281556001016101a5565b5050505b505050565b81516001600160401b038111156101da576101da610051565b6101ee816101e88454610136565b84610170565b602080601f831160018114610223576000841561020b5750858301515b600019600386901b1c1916600185901b1785556101b8565b600085815260208120601f198616915b8281101561025257888601518255948401946001909101908401610233565b50858210156102705787850151600019600388901b60f8161c191681555b5050505050600190811b01905550565b808201808211156102a157634e487b7160e01b600052601160045260246000fd5b92915050565b6105de806102b66000396000f3fe608060405234801561001057600080fd5b50600436106100575760003560e01c80633197cbb61461005c57806337aeebe514610078578063af1b246914610098578063efbe1c1c146100ad578063f2a4a82e146100b5575b600080fd5b61006560015481565b6040519081526020015b60405180910390f35b61008b610086366004610312565b6100bd565b60405161006f9190610388565b6100ab6100a636600461039b565b610169565b005b6100ab610213565b61008b610284565b6001600160a01b03811660009081526002602052604090208054606091906100e49061040d565b80601f01602080910402602001604051908101604052809291908181526020018280546101109061040d565b801561015d5780601f106101325761010080835404028352916020019161015d565b820191906000526020600020905b81548152906001019060200180831161014057829003601f168201915b50505050509050919050565b60015442106101af5760405162461bcd60e51b815260206004820152600d60248201526c105d58dd1a5bdb88195b991959609a1b60448201526064015b60405180910390fd5b3360009081526002602052604090206101c98284836104ae565b50336001600160a01b03167fc8978bbc656dfcedcde5cae86ce0c1f7d69d6974d2aadb6e4dee1fab2831cceb8383426040516102079392919061056f565b60405180910390a25050565b60015442101561024f5760405162461bcd60e51b8152602060048201526007602482015266139bdd081e595d60ca1b60448201526064016101a6565b6040514281527f45806e512b1f4f10e33e8b3cb64d1d11d998d8c554a95e0841fc1c701278bd5d9060200160405180910390a1565b600080546102919061040d565b80601f01602080910402602001604051908101604052809291908181526020018280546102bd9061040d565b801561030a5780601f106102df5761010080835404028352916020019161030a565b820191906000526020600020905b8154815290600101906020018083116102ed57829003601f168201915b505050505081565b60006020828403121561032457600080fd5b81356001600160a01b038116811461033b57600080fd5b9392505050565b6000815180845260005b818110156103685760208185018101518683018201520161034c565b506000602082860101526020601f19601f83011685010191505092915050565b60208152600061033b6020830184610342565b600080602083850312156103ae57600080fd5b823567ffffffffffffffff808211156103c657600080fd5b818501915085601f8301126103da57600080fd5b8135818111156103e957600080fd5b8660208285010111156103fb57600080fd5b60209290920196919550909350505050565b600181811c9082168061042157607f821691505b60208210810361044157634e487b7160e01b600052602260045260246000fd5b50919050565b634e487b7160e01b600052604160045260246000fd5b601f8211156104a9576000816000526020600020601f850160051c810160208610156104865750805b601f850160051c820191505b818110156104a557828155600101610492565b5050505b505050565b67ffffffffffffffff8311156104c6576104c6610447565b6104da836104d4835461040d565b8361045d565b6000601f84116001811461050e57600085156104f65750838201355b600019600387901b1c1916600186901b178355610568565b600083815260209020601f19861690835b8281101561053f578685013582556020948501946001909201910161051f565b508682101561055c5760001960f88860031b161c19848701351681555b505060018560011b0183555b5050505050565b604081528260408201528284606083013760006060848301015260006060601f19601f860116830101905082602083015294935050505056fea2646970667358221220627cd1d0acbaf8c9aeb881827e28c591e7ad36273e9d8e62e0beeee43282096f64736f6c63430008180033",
  "linkReferences": {},
  "deployedLinkReferences": {}
}